:1000000004308A00782C00000A108A100A11820736
:1000100028340C34013406340C224310CD37F43725
:100020007205C8347A10CB376E3AF237EC3A0000DA
:100030000C2B6F36F430EA1E2533202B0000C4321F
:10004000E732F21EA53A001633308400831300080D
:10005000031938280130F800F701F70B2D28F80BA9
:100060002C284A30F700F70B33283628800B2A2833
:1000700008003A0EF039F7000F30060577048600C5
:10008000000006144328061008000608F700060EB4
:100090000F39F80008008316061086100611831227
:1000A00086100F3083160605F03886008312061579
:1000B00000000614000045207808BA000610000071
:1000C0000614000045207808B90006100F3083168A
:1000D0000605860083123A0EF700F030F705770820
:1000E0003904F8007808B900B91B5128371C86106C
:1000F000371886140000061100000610380EB900EB
:100100000F30B9053908BA00392038080F39B9005D
:10011000BA00392008000F30831606058600061045
:100120008610061183128610061106100F30B300D8
:1001300024200130A5002508033C031CA728033018
:10014000BA0039200530B3002420A50A9B280230CC
:10015000BA0039200530B3002420A5012508033C4E
:10016000031CBB2825080420A600B7012608B800F8
:100170004B20A50AAE288A110A12AE2C340BC128D6
:10018000C4284030B500C528B50101303302B50799
:1001900035088038B600B7013608B8004B20080093
:1001A0003208073A0319DE280B3A0319E328063A06
:1001B0000319EB28023A0319F128F6280130B3009D
:1001C000B400BE20FB28B7010130B8004B2002303C
:1001D000B3002420FB280130B3000230B400BE205D
:1001E000FB28B7011030B8004B20FB280130B700C6
:1001F0003208B8004B2008000B08A5008B138316AB
:1002000003178C170C140000000083120C087F39B0
:10021000031943290313A60003170D080313A700AE
:1002200003170F080313A8002608B200D0202708E0
:1002300003178D000313280803178F0083168C17EC
:100240000C140000000083120C0D0E0D7F390319F1
:1002500043290313A60003170D080313A700031770
:100260000F080313A8002608B200D02027080317A0
:100270008D000313280803178F008D0A03198F0AB6
:100280000313FF2803170313A51B8B178A110A12E8
:10029000B52C8E30F7002608F8002508F900FA0181
:1002A000F808031D5D297908F800F9010830F70204
:1002B000F808031D5D29F70165290310F81B64295F
:1002C000F90DF80DF7035D29F8138A110A12CB2CEA
:1002D000250803192D2AB100290803192D2AB10276
:1002E000031C77297F30B10703182D2A7D2981301F
:1002F000B102031C2D2A03192D2A3108F700F80139
:10030000F901FA01B0012608AF00AF172708AE00C7
:100310002808AD001930B1002C08AD020318A0293F
:100320000130AE020318A029AF020318A029B002C1
:100330000318A029B00AAF0AAE0A2C08AD07D229CB
:100340002B08AE020318BB290130AF020318BB29EA
:10035000B0020318BB29B00AAF0A2B08AE072C085D
:10036000AD07031CD229AE0A031DD229AF0A031D13
:10037000D229B00AD2292A088038AF020318D1291D
:100380000130B0020318D129B00A2A088038AF071B
:100390002B08AE07031CAF29AF0A031DAF29B00A13
:1003A000AF297A14B10BD529E0290310AD0DAE0D9C
:1003B000AF0DB00D0310FA0DF90DF80DB20D8C292B
:1003C000321CE8290310F80CF90CFA0CB20CEB29DA
:1003D000F70303192D2AB21B142A0310AD0DAE0D1D
:1003E000AF0DB00D2C08AD020318002A0130AE028B
:1003F0000318002AAF020318002AB002031C232AA4
:100400002B08AE0203180B2A0130AF0203180B2A87
:10041000B002031C232A2A088038AF020318142ACA
:100420000130B002031C232AFA0A031D232AF90A09
:10043000031D232AF80A031D232AF70A03192D2A6C
:10044000F80CF90CFA0C2608B1002A08B106B11F05
:100450002B2AF817312AF813312AF701F801F9018C
:10046000FA018A110A12DA2C0B08A6008B138316E4
:1004700003178C170C14000000000318662A83125F
:100480000C087F390313A70003170D080313A800F6
:1004900003170F080313A9002708B200D02028086B
:1004A00003178D000313290803178F0083168C1779
:1004B0000C140000000083120313A50B602A632AAA
:1004C00083160317662A852A8316031783120C0DD9
:1004D0000E0D7F390313A70003170D080313A8009F
:1004E00003170F080313A9002708B200D02028081B
:1004F00003178D000313290803178F008D0A0319B2
:100500008F0A03100313A50B372AA61B8B170800AD
:1005100083188D2A3A3084008313F701F801F9011A
:10052000FA01BA01BB01BC01BD0139083804370426
:1005300036040319CB2A2030BE000310B20DB30DD0
:10054000B40DB50DBA0DBB0DBC0DBD0D39083D0286
:10055000031DB42A38083C02031DB42A37083B02A5
:10056000031DB42A36083A02031CC52A3608BA020B
:100570003708031C370FBB023808031C380FBC02B6
:100580003908031C390FBD020314F70DF80DF90DDE
:10059000FA0DBE0B9D2A3A088000840A3B088000B1
:1005A000840A3C088000840A3D0880000800040892
:1005B000AA002908AC000319692B2808B5002708F0
:1005C000B4002608B3002508B200B901B8012030F4
:1005D000B7008230B600320803195B2BBA00360828
:1005E00003195B2BBA070318FC2A7F30BA02031CDD
:1005F0005B2B03195B2B002B8130BA0703185B2B95
:100600003A08F700F801F901FA013308BE00BE17F5
:100610003408BD003508BC001830BA00BB013C1CD2
:10062000292B3908FA07031C1B2BF90A031D1B2B66
:10063000F80A0319BB173808F907031C222BF80A1C
:100640000319BB173708B400B4173408F8070318A8
:10065000BB17BB0DF80CF90CFA0CBE0CBD0CBC0C96
:100660000310BA0B0E2B0130F70703185B2BF81B96
:10067000402BBE0DFA0DF90DF80DF70303195B2B96
:10068000BE1F512BFA0A031D512BF90A031D512BD2
:10069000F80A031D512BF80CF90CFA0CF70A031990
:1006A0005B2B3308BB003708BB06BB1F592BF81761
:1006B0005F2BF8135F2BF701F801F901FA017A08B3
:1006C000A8007908A7007808A6007708A500AC0B59
:1006D000DD2A2808B5002708B4002608B30025083D
:1006E000B2003208B63CB200FA013308B600B317C4
:1006F0000310B30CB40CB50CFA0CF90CF80CF70C95
:10070000B20B782BB61F8F2BF709F809F909FA09F4
:10071000F70A0319F80A0319F90A0319FA0A7A08F9
:10072000A8007908A7007808A6007708A500A81FE8
:10073000A62BAA03AA16A509A609A709A809A50A0E
:100740000319A60A0319A70A0319A80A3B30B10026
:100750009A30B000CA30AF00AE010A30AC002908B0
:100760000319AA0A83142530840083132808B500CE
:100770002708B4002608B3002508B2003108B900E4
:100780003008B8002F08B7002E08B6008822780875
:10079000F708031DDE2B290A2C020319DE2B2A0879
:1007A0000319E02B0F392C020319D82B0318102C36
:1007B000AA1B102C2A1BE02B20300C2C2030AA0561
:1007C000AA1EEE2BAA122908031DAA037708AA0065
:1007D0002D30B200D0202A08F700AA0129082C02E7
:1007E000031DFC2B7708AA002E30B200D0202A0867
:1007F000F7002030AA0500303030AA1E0C2CAA12B7
:100800002908031DAA037708AA002D30B200D020C2
:100810002A08F700AA013030F7077708B200D02085
:1008200083103108B5003008B4002F08B3002E083B
:10083000B200B901B801B7010A30B60088227A08BF
:10084000B1007908B0007808AF007708AE00AC0BB3
:10085000B22B8A110A12FD2C2808F801270203186E
:10086000342C2708F700402CF7010830A900A70D09
:10087000F70D280877020318F700F80DA90B372C9D
:10088000080078082508A7006430A8002C24770801
:10089000A50078083030031D542CA61C5B2CA6192B
:1008A0005B2C261A2030572CA61126122614F80786
:1008B0007808B200D0202508A7000A30A8002C2410
:1008C0007708A50078083030031D6C2CA619702C11
:1008D000261C702C261A2030F8077808B200D02089
:1008E0003030A5072508B200D0208A110A12172D32
:1008F00083161F149F141F159F1183131F30830528
:100900000912831290010030F80005389200FF3080
:1009100083169200831207110C309700F0309D056A
:100920001F139F1783169F1383121F1483161F1004
:100930009F101F119F112030850000308600870016
:100940002030F80083121F08C73978049F00063052
:10095000F700F70BA92C000087018B280C30031738
:100960008D0000308F000313FC280430A500FA30FE
:10097000B3002420A50BB72C95011F151F19BE2C01
:100980001E08A0000630F700F70BC42C0000A601DB
:100990002008A50049297A08A8007908A700780846
:1009A000A6007708A500AC01AB014C30AA0084304A
:1009B000A90068297A08A4007908A3007808A20091
:1009C0007708A10087150712200895001830031733
:1009D0008D0000308F00031008300313A50034226F
:1009E000893084002408A8002308A7002208A60054
:1009F0002108A5000230A900D72A2030B200D0205B
:100A00005630B200D0200130B3000230B400BE2016
:100A10001F3003178D0000308F00031006300313C2
:100A2000A50034222008A5001B30A600412C04306C
:100A3000A500FA30B3002420A50B192DBD2C6300AE
:02400E00393F38
:00000001FF
;PIC16F877
;CRC=4AB5  CREATED="14-May-19 13:39"
